:020000040800F2
:1000000000500020791600085D0900085F0900080B
:100010006109000863090008650900080000000084
:100020000000000000000000000000006709000858
:1000300069090008000000006B0900086D0900084C
:10004000C1160008C1160008C1160008C116000834
:10005000C1160008C1160008C1160008C116000824
:10006000C1160008C1160008C1160008C116000814
:10007000C1160008C1160008C1160008C116000804
:10008000C1160008C1160008C1160008C1160008F4
:10009000C1160008C1160008C1160008C1160008E4
:1000A000C1160008C1160008C1160008C1160008D4
:1000B000C1160008C1160008C1160008C1160008C4
:1000C000C1160008C1160008C1160008C1160008B4
:1000D000C1160008C1160008C1160008C1160008A4
:1000E000C1160008C1160008C11600080000000073
:1000F0000000000000000000000000000000000000
:0C01000000000000000000005FF808F1A3
:10010C0010B5054C237833B9044B13B10448AFF345
:10011C0000800123237010BD3C040020000000006F
:10012C00EC17000808B5034B1BB103490348AFF3A8
:10013C00008008BD0000000040040020EC170008FF
:10014C0084B00F4B9A6942F020029A619A6902F0CE
:10015C0020020192019A9A6942F008029A619A6906
:10016C0002F008020292029A9A6942F004029A6121
:10017C009B6903F004030393039B04B0704700BF17
:10018C000010024000B583B08DF807004FF0FF332C
:10019C0001220DF10701034801F091F903B05DF85C
:1001AC0004FB00BF6C04002008B500F059FBFF20D5
:1001BC00FFF7E8FF08BD000070B588B01B4B9A69CB
:1001CC0042F020029A619A6902F020020192019A8F
:1001DC009A6942F008029A619A6902F00802029246
:1001EC00029A9A6942F004029A619B6903F0040333
:1001FC000393039B45F20203049301260596002505
:10020C0006950224079404A9094800F069FC4FF4F0
:10021C008073049305960695079404A9054800F08D
:10022C005FFCFFF7C1FF08B070BD00BF00100240BB
:10023C00000C01400008014038B5054C4FF48055C6
:10024C00656102236361C0B2FFF79CFF256138BD75
:10025C00000C014038B5054C4FF480556561022304
:10026C002361FFF78FFF256138BD00BF000C0140F3
:10027C0070B50446064D4FF480566E6102232B6117
:10028C00000AFFF77FFFE0B2FFF77CFF2E6170BD25
:10029C00000C014010B50C46FFF7CEFFE0B2FFF7A3
:1002AC00D9FF10BD08B5024B1889FFF7C5FF08BD73
:1002BC005C04002008B50120FFF7BEFF322000F0DF
:1002CC009FFB08BD70B505460C46114B1B787BB9DE
:1002DC00104E7089FFF7B0FFA81C80B2FFF7C8FF63
:1002EC00B089FFF7A9FF601C80B2FFF7C1FF70BD9A
:1002FC00084E7089FFF7A0FF681C80B2FFF7B8FFAB
:10030C00B089FFF799FFA01C80B2FFF7B1FFEEE7B1
:10031C00580400205C04002010B51446FFF7D2FFEF
:10032C00034B1889FFF788FF2046FFF7A1FF10BD8C
:10033C005C0400202DE9F04107460D46024496B2BC
:10034C000B449CB21B4B1B78D3B9DFF86C80B8F80C
:10035C000A00FFF771FFB81C80B2FFF789FF701C11
:10036C0080B2FFF785FFB8F80C00FFF765FF681C3B
:10037C0080B2FFF77DFF2046FFF77AFFBDE8F081E2
:10038C00DFF83480B8F80A00FFF756FF781C80B20B
:10039C00FFF76EFF3046FFF76BFFB8F80C00FFF766
:1003AC004BFFA81C80B2FFF763FF601C80B2FFF705
:1003BC005FFFE3E7580400205C04002010B5C8B1CF
:1003CC00012832D0022844D0032855D0344B0024C5
:1003DC009C7180221A80A0225A802C221A812A22F7
:1003EC005A812B229A81C0213620FFF753FF2D4BC7
:1003FC001C7012E02A4B00249C7180221A80A022CF
:10040C005A802C221A812A225A812B229A81C021AD
:10041C003620FFF73FFF234B1C70214A538812886C
:10042C0000210846FFF786FF10BD1D4B00249C7170
:10043C0080221A80A0225A802C221A812A225A81C8
:10044C002B229A8140213620FFF724FF154B1C707C
:10045C00E3E7134B01249C71A021198080225A8060
:10046C002C221A812A225A812B229A813620FFF7BC
:10047C0011FF0C4B1C70D0E7094B01249C71A0227E
:10048C001A8080225A802C221A812A225A812B22ED
:10049C009A8160213620FFF7FDFE024B1C70BCE7F1
:1004AC005C0400205804002070B506460C4C638890
:1004BC00228800210846FFF73DFF2388658805FB4D
:1004CC0003F500210846FFF7FDFEFFF7EBFE0024C5
:1004DC00AC4204D23046FFF7CBFE0134F8E770BDD6
:1004EC005C04002008B5FFF767FEFFF7E3FE112060
:1004FC00FFF7A2FE782000F083FAB120FFF79CFEF4
:10050C000520FFF7A7FE3C20FFF7A4FE3C20FFF7D9
:10051C00A1FEB220FFF790FE0520FFF79BFE3C20CA
:10052C00FFF798FE3C20FFF795FEB320FFF784FE03
:10053C000520FFF78FFE3C20FFF78CFE3C20FFF7D9
:10054C0089FE0520FFF786FE3C20FFF783FE3C204A
:10055C00FFF780FEB420FFF76FFE0320FFF77AFE53
:10056C00C020FFF769FE2820FFF774FE0820FFF774
:10057C0071FE0420FFF76EFEC120FFF75DFEC02068
:10058C00FFF768FEC220FFF757FE0D20FFF762FE53
:10059C000020FFF75FFEC320FFF74EFE8D20FFF714
:1005AC0059FE2A20FFF756FEC420FFF745FE8D208A
:1005BC00FFF750FEEE20FFF74DFEC520FFF73CFE87
:1005CC001A20FFF747FE3620FFF736FEC020FFF754
:1005DC0041FEE020FFF730FE0420FFF73BFE222017
:1005EC00FFF738FE0720FFF735FE0A20FFF732FE33
:1005FC002E20FFF72FFE3020FFF72CFE2520FFF7D3
:10060C0029FE2A20FFF726FE2820FFF723FE2620AE
:10061C00FFF720FE2E20FFF71DFE3A20FFF71AFEF3
:10062C000020FFF717FE0120FFF714FE0320FFF751
:10063C0011FE1320FFF70EFEE120FFF7FDFD042055
:10064C00FFF708FE1620FFF705FE0620FFF702FE57
:10065C000D20FFF7FFFD2D20FFF7FCFD2620FFF7F7
:10066C00F9FD2320FFF7F6FD2720FFF7F3FD2720E8
:10067C00FFF7F0FD2520FFF7EDFD2D20FFF7EAFD3C
:10068C003B20FFF7E7FD0020FFF7E4FD0120FFF71B
:10069C00E1FD0420FFF7DEFD1320FFF7DBFD3A2020
:1006AC00FFF7CAFD0520FFF7D5FD2920FFF7C4FD94
:1006BC000020FFF783FE044B4FF480721A614FF653
:1006CC00FF70FFF7F1FE08BD000801402DE9F04F67
:1006DC0087B0814688461E4601925200C2F1030340
:1006EC000293002703E0BB0006331A440292019BDD
:1006FC009F4258DCBDB205EB090B1FFA8BFBBDF812
:10070C000440A8EB04039BB23246039319465846A7
:10071C00FFF702FE04EB090A1FFA8AFAA8EB05039D
:10072C009AB210463246049001465046FFF7F4FD4B
:10073C0005EB08039AB21046324605900146504626
:10074C00FFF7EAFD04EB080A1FFA8AFA3246514613
:10075C005846FFF7E1FDA9EB0505ADB2324651460F
:10076C002846FFF7D9FDA9EB0404A4B2324605993B
:10077C002046FFF7D1FD324603992846FFF7CCFD02
:10078C00324604992046FFF7C7FD0137029A002A2A
:10079C00A9DB019ABB1A9B000A33029919440291F6
:1007AC00531E0193A3E707B0BDE8F08F72B6FEE7C6
:1007BC0000B591B0002309930B930C930193029312
:1007CC00039304930593012106914FF48032079211
:1007DC0008930A9102230D930E924FF4E0130F939A
:1007EC0006A800F0A3FA80B90F230193022102910D
:1007FC00002303934FF480620492059301A800F048
:10080C00D3FC20B911B05DF804FBFFF7CFFFFFF765
:10081C00CDFF08B500F0D0F8FFF764FEFFF7C8FF76
:10082C00FFF78EFC00F01CF84FF6FF70FFF73CFE54
:10083C004FF47A7000F0E4F84FF478432D22322113
:10084C000846FFF743FF4FF47A7000F0D9F84FF4E5
:10085C007840FFF729FE4FF47A7000F0D1F8E3E707
:10086C0008B50F480F4B03604FF4827343604FF48D
:10087C00004383600023C3600222026101224261B3
:10088C004FF400728261C3610362436283620A2384
:10089C00C36200F0B9FD00B908BDFFF787FFFBE7A5
:1008AC006C0400200038004000B587B00023029390
:1008BC000393049305930268124B9A4202D007B03B
:1008CC005DF804FB03F5EC33DA6942F48042DA613B
:1008DC00DA6902F480420092009A9A6942F00802A6
:1008EC009A619B6903F008030193019B4FF4204329
:1008FC000293022303930323059302A9024800F0F9
:10090C00EFF8DCE700380040000C014082B00E4BE1
:10091C009A6942F001029A619A6902F0010200920E
:10092C00009ADA6942F08052DA61DB6903F0805395
:10093C000193019B054A536823F0E06343F0007375
:10094C00536002B0704700BF00100240000001402D
:10095C00FEE7FEE7FEE7FEE7FEE7704770477047ED
:10096C0008B500F03BF808BD7047000010B5044610
:10097C000E4B18784FF47A73B3FBF0F30C4A1068F3
:10098C00B0FBF3F000F096F868B90F2C01D90120F8
:10099C000AE0002221464FF0FF3000F057F8054BDB
:1009AC001C60002000E0012010BD00BF04000020EE
:1009BC00000000200800002008B5074A136843F027
:1009CC0010031360032000F02FF80020FFF7CEFF78
:1009DC00FFF79CFF002008BD00200240034A11686D
:1009EC00034B1B780B441360704700BFC4040020FA
:1009FC0004000020014B1868704700BFC40400209D
:100A0C0038B50446FFF7F6FF0546B4F1FF3F02D0B8
:100A1C00044B1B781C44FFF7EDFF401BA042FAD39C
:100A2C0038BD00BF04000020074AD36823F4E063FC
:100A3C001B041B0C000200F4E060034343F0BF6393
:100A4C0043F40033D360704700ED00E030B4174B33
:100A5C00DB68C3F30223C3F10704042C28BF04246E
:100A6C001D1D062D18D9033B4FF0FF3505FA04F474
:100A7C0021EA0401994005FA03F322EA030319431E
:100A8C0000280BDB0901C9B200F1604000F56140A0
:100A9C0080F8001330BC70470023E5E700F00F002E
:100AAC000901C9B2024B1954F4E700BF00ED00E094
:100ABC0014ED00E00138B0F1807F0AD2064B58608B
:100ACC00064AF02182F823100020986007221A6051
:100ADC0070470120704700BF10E000E000ED00E01F
:100AEC00F0B482B000252C46A3E07F4FBB4210D05F
:100AFC0007D97E4FBB420CD007F58037BB4208D0DC
:100B0C0013E0A7F58017BB4203D007F57027BB4253
:100B1C0007D18B68002B58D0012B51D0426108258E
:100B2C0003E0A7F58017BB42F3D0FF2E4FD88446C5
:100B3C00FF2E4FD8A200DCF800300F27974023EA95
:100B4C00070305FA02F21343CCF800304B6813F09C
:100B5C00805F6DD0664B9A6942F001029A619B6985
:100B6C0003F001030193019BA208971C614B53F8FE
:100B7C00273004F00307BF004FF00F0C0CFA07FCF2
:100B8C0023EA0C0C5C4B98422AD003F58063984204
:100B9C0000F08A8003F58063984200F0878003F5AB
:100BAC00806398421AD004231BE0CD68BDE7CD6862
:100BBC000435BAE7CD680835B7E7CD680C35B4E72E
:100BCC0002610825B1E70025AFE70425ADE700F188
:100BDC00040CADE7A4F108029200ACE7032300E09B
:100BEC000023BB4043EA0C030232424F47F8223049
:100BFC004B6813F4803F5BD0404A13683343136057
:100C0C004B6813F4003F59D03C4A5368334353604C
:100C1C004B6813F4801F57D0384A93683343936062
:100C2C004B6813F4001F55D0344AD3681E43D6606A
:100C3C0001340B6833FA04F252D00122A24003EAC9
:100C4C00020632EA0303F3D14B68122B3FF64DAF89
:100C5C00122B3FF66AAF01A757F823F01F0B0008C1
:100C6C00B70B0008C10B0008D30B0008370B0008AA
:100C7C00370B0008370B0008370B0008370B000840
:100C8C00370B0008370B0008370B0008370B000830
:100C9C00370B0008370B0008370B0008370B000820
:100CAC00BB0B0008C70B000801239AE7022398E747
:100CBC00124A136823EA06031360A1E70F4A53682C
:100CCC0023EA06035360A3E70C4A936823EA06035E
:100CDC009360A5E7094AD36823EA0606D660A7E71E
:100CEC0002B0F0BC704700BF0000221000003110B1
:100CFC0000100240000001400008014000040140C7
:100D0C0082B0084B1B68084AA2FB03235B0A00FB5A
:100D1C0003F3019300BF019B5A1E0192002BF9D1E2
:100D2C0002B0704700000020D34D6210002800F084
:100D3C00F18170B582B00446036813F0010F2CD01A
:100D4C00AA4B5B6803F00C03042B1DD0A74B5B680C
:100D5C0003F00C03082B12D06368B3F5803F41D02D
:100D6C00002B55D103F1804303F504331A6822F4A8
:100D7C0080321A601A6822F480221A6037E09B4B8A
:100D8C005B6813F4803FE7D0984B1B6813F4003F6B
:100D9C0003D06368002B00F0BF81236813F0020FAF
:100DAC0075D0924B5B6813F00C0F5FD08F4B5B6868
:100DBC0003F00C03082B54D02369002B00F089801E
:100DCC008B4B01221A60FFF715FE0546874B1B68FB
:100DDC0013F0020F74D1FFF70DFE401B0228F5D95A
:100DEC0003209EE1814A136843F4803313606368E7
:100DFC0043B3FFF7FFFD05467C4B1B6813F4003F24
:100E0C00CBD1FFF7F7FD401B6428F5D9032088E10F
:100E1C00B3F5A02F09D0754B1A6822F480321A60F2
:100E2C001A6822F480221A60E1E703F18043A3F5EB
:100E3C003C331A6842F480221A601A6842F48032F9
:100E4C001A60D4E7FFF7D6FD0546684B1B6813F410
:100E5C00003FA2D0FFF7CEFD401B6428F5D903203C
:100E6C005FE1624B5B6813F4803FA5D15F4B1B685D
:100E7C0013F0020F03D02369012B40F04F815B4A22
:100E8C00136823F0F803616943EAC1031360236814
:100E9C0013F0080F32D0A369002B45D0554B01221B
:100EAC001A60FFF7A7FD0546504B5B6A13F0020F63
:100EBC0021D1FFF79FFD401B0228F5D9032030E11B
:100ECC004A4A136823F0F803616943EAC1031360CB
:100EDC00DDE7474B00221A60FFF78CFD0546434BBC
:100EEC001B6813F0020FD2D0FFF784FD401B0228C1
:100EFC00F5D9032015E10120FFF702FF236813F059
:100F0C00040F00F09780394BDB6913F0805F1DD123
:100F1C00364BDA6942F08052DA61DB6903F08053B8
:100F2C000193019B012512E0324B00221A60FFF75E
:100F3C0061FD05462D4B5B6A13F0020FDED0FFF707
:100F4C0059FD401B0228F5D90320EAE000252A4B65
:100F5C001B6813F4807F11D0E368012B22D0002B87
:100F6C0038D103F1804303F504331A6A22F00102ED
:100F7C001A621A6A22F004021A6218E01E4A1368F6
:100F8C0043F480731360FFF735FD06461A4B1B685C
:100F9C0013F4807FE0D1FFF72DFD801B6428F5D979
:100FAC000320BEE0114A136A43F001031362E368A5
:100FBC0073B3FFF71FFD06460C4B1B6A13F0020FB1
:100FCC0037D1FFF717FD801B41F288339842F3D9D4
:100FDC000320A6E0052B11D0044B1A6A22F0010263
:100FEC001A621A6A22F004021A62E0E70010024048
:100FFC000000424280044242007000404D4B1A6A8D
:10100C0042F004021A621A6A42F001021A62CEE736
:10101C00FFF7F0FC0646474B1B6A13F0020F08D093
:10102C00FFF7E8FC801B41F288339842F3D9032088
:10103C0077E0E5B9E369002B72D03E4A526802F0C2
:10104C000C02082A56D0022B17D03B4B00221A60F8
:10105C00FFF7D0FC0446374B1B6813F0007F47D0DA
:10106C00FFF7C8FC001B0228F5D9032059E0314AD0
:10107C00D36923F08053D361DCE72F4B00221A6035
:10108C00FFF7B8FC05462B4B1B6813F0007F06D00E
:10109C00FFF7B0FC401B0228F5D9032041E0236A7E
:1010AC00B3F5803F1AD023494B6823F47413226A9A
:1010BC00606A024313434B601F4B01221A60FFF717
:1010CC0099FC04461B4B1B6813F0007F0ED1FFF7F5
:1010DC0091FC001B0228F5D9032022E0154A536825
:1010EC0023F40033A1680B435360DCE7002018E0C5
:1010FC00002016E0012B16D00E4B5B6803F48031F8
:10110C00226A914211D103F47013626A93420ED198
:10111C00002006E001207047012002E0012000E0E1
:10112C00002002B070BD0120FBE70120F9E701208F
:10113C00F7E700BF001002406000424286B0164B39
:10114C000FCB0DF1180C0CE90F0040F20123ADF898
:10115C000430124B5B6803F00C02082A02D01048D2
:10116C0006B07047C3F38342624412F8102C13F498
:10117C00803F0CD0094B5B68C3F34043634413F8C6
:10118C00143C074800FB02F0B0FBF3F0E8E705481D
:10119C0000FB02F0E4E700BF141800080010024046
:1011AC0000127A0000093D00002800F0A08070B504
:1011BC000D460446524B1B6803F007038B420BD2BF
:1011CC004F4A136823F007030B431360136803F0B3
:1011DC0007038B4240F08D80236813F0020F17D069
:1011EC0013F0040F04D0474A536843F4E063536090
:1011FC00236813F0080F04D0424A536843F4605339
:10120C005360404A536823F0F003A1680B435360CA
:10121C00236813F0010F31D06368012B20D0022B0F
:10122C0025D0384A126812F0020F64D035494A684A
:10123C0022F0030213434B60FFF7DCFB0646314BF5
:10124C005B6803F00C036268B3EB820F16D0FFF7F8
:10125C00D1FB801B41F288339842F0D9032045E042
:10126C00284A126812F4003FE0D101203EE0254AE2
:10127C00126812F0007FD9D1012037E0204B1B6897
:10128C0003F00703AB420AD91D4A136823F0070386
:10129C002B431360136803F00703AB422DD1236873
:1012AC0013F0040F06D0174A536823F4E063E16887
:1012BC000B435360236813F0080F07D0114A53688F
:1012CC0023F46053216943EAC1035360FFF736FFEF
:1012DC000C4B5B68C3F303130B4AD35CD8400B4B2A
:1012EC0018600B4B1868FFF741FB002070BD012004
:1012FC0070470120FAE70120F8E70120F6E700BF6C
:10130C0000200240001002400418000800000020D9
:10131C00080000202DE9F04782B0054688461746A4
:10132C001E46FFF767FB0A9B1B1A03EB0609FFF728
:10133C0061FB82462A4B1B68C3F3CB3309FB03F3D7
:10134C0001932B689C6838EA04030CBF0124002429
:10135C00BC4240D0B6F1FF3FF3D0FFF74BFBA0EB04
:10136C000A0048450AD2B9F1000F07D0019A02B120
:10137C004A46019B013B01939146E2E72A68536878
:10138C0023F0E00353606B68B3F5827F0BD0AB6A3C
:10139C00B3F5005F14D0012385F85130002385F894
:1013AC005030032018E0AB68B3F5004F02D0B3F512
:1013BC00806FECD12A68136823F040031360E6E7D2
:1013CC002A68136823F4005313602A68136843F4E3
:1013DC0000531360DFE7002002B0BDE8F08700BFC8
:1013EC000000002010B582B004460B46009200228B
:1013FC008021FFF78FFF08B902B010BD636D43F079
:10140C00200363650320F7E7002856D010B5044687
:10141C00436A33B94368B3F5827F05D00023C361B7
:10142C0002E00023036143610023A36294F851306E
:10143C00002B3CD0022384F851302268136823F02F
:10144C0040031360636803F48273A26802F40442DD
:10145C001343E26802F400621343226902F00202B1
:10146C001343626902F001021343A26902F4007291
:10147C001343E26902F038021343226A02F080023D
:10148C001343A26A02F40052216813430B60638B6E
:10149C00226803F0040353602268D36923F40063C9
:1014AC00D36100206065012384F8513010BD84F8AD
:1014BC0050302046FFF7F8F9BCE7012070472DE9C2
:1014CC00F04383B01D4690F85030012B00F0CC80D7
:1014DC00044688469146012380F85030FFF78AFA7B
:1014EC00074694F85160F6B2012E40F0AA80B8F18C
:1014FC00000F00F0A780B9F1000F00F0A3800323C8
:10150C0084F8513000236365C4F83080A4F834901B
:10151C00A4F83690A363A387E38763642364A3686A
:10152C00B3F5004F1ED023681A6812F0400F03D198
:10153C001A6842F040021A60E368B3F5006F1CD0E1
:10154C00636813B1B9F1010F52D1226B2368127881
:10155C001A73236B01332363E38E9BB2013B9BB263
:10156C00E38645E02268136823F040031360226889
:10157C00136843F480431360D5E7636813B1B9F182
:10158C00010F16D1226B23681288DA60236B0233A9
:10159C002363E38E9BB2013B9BB2E38609E0FFF72A
:1015AC0029FAC01BA84202D3B5F1FF3F54D1002D3C
:1015BC0054D0E38E9BB2002B2ED023689A6812F085
:1015CC00020FECD0226B1288DA60236B0233236398
:1015DC00E38E9BB2013B9BB2E386EAE7FFF70AFA84
:1015EC00C01BA84202D3B5F1FF3F39D1002D39D031
:1015FC00E38E9BB283B123689A6812F0020FEDD090
:10160C00226B12781A73236B01332363E28E92B22E
:10161C00013A92B2E286EBE73A4629462046FFF7BA
:10162C00E1FE08B120236365A36833B901932368F5
:10163C00DA6801929B680193019B636D13B90026D4
:10164C0000E00226012384F85130002384F8503046
:10165C00304603B0BDE8F0830326F3E70326F1E739
:10166C000326EFE70326EDE70226F1E70C480D49C8
:10167C000D4A002302E0D458C4500433C4188C42E1
:10168C00F9D30A4A0A4C002301E013600432A24247
:10169C00FBD3FFF769F900F00FF8FFF7BAF87047C2
:1016AC00000000203C040020381800083C040020F6
:1016BC00EC040020FEE7000070B50D4E0D4D761BBE
:1016CC00B61006D0002455F8043B01349847A642C6
:1016DC00F9D1094E094D00F083F8761BB61006D0EF
:1016EC00002455F8043B01349847A642F9D170BD4B
:1016FC002C1800082C180008341800082C180008A6
:10170C00024B13B1024800F005B87047000000000E
:10171C002D170008002301461A46184600F01AB887
:10172C0038B5084B084D5B1B9C1007D0043B1D447F
:10173C00013C55F804399847002CF9D1BDE83840E4
:10174C0000F054B83818000834180008704700BF6F
:10175C00704700BF2DE9F047DFF880A00646DAF8A5
:10176C00000098460F469146FFF7F0FF1A4B1B6896
:10177C00D3F8484124B365681F2D26DC5EB96B1C79
:10178C000235DAF80000636044F82570FFF7E0FFDB
:10179C000020BDE8F087012304EB8501C1F8889097
:1017AC00D4F88821AB401A43022EC4F88821C1F822
:1017BC000881E4D1D4F88C211343C4F88C31DEE7D2
:1017CC0003F5A674C3F84841D5E7DAF80000FFF733
:1017DC00BFFF4FF0FF30DCE728180008380400206A
:1017EC00F8B500BFF8BC08BC9E467047F8B500BF02
:0817FC00F8BC08BC9E467047D2
:1018040000000000000000000102030406070809AC
:1018140002030405060708090A0B0C0D0E0F10102D
:0818240000000000100000208C
:08182C000D170008310100084E
:041834000D0100089A
:101838000024F40001000000100000000000000077
:1018480000000000FC02002064030020CC030020FC
:101858000000000000000000000000000000000080
:101868000000000000000000000000000000000070
:101878000000000000000000000000000000000060
:101888000000000000000000000000000000000050
:101898000000000000000000000000000000000040
:1018A8000000000000000000000000000000000030
:1018B8000000000000000000000000000000000020
:1018C8000000000000000000000000000000000010
:1018D8000000000000000000000000000000000000
:1018E80000000000000000000100000000000000EF
:1018F8000E33CDAB34126DE6ECDE05000B000000B4
:1019080000000000000000000000000000000000CF
:1019180000000000000000000000000000000000BF
:1019280000000000000000000000000000000000AF
:10193800000000000000000000000000000000009F
:0C1C68000000000000000000C804002084
:040000050800167960
:00000001FF
